:020000040800F2
:1000000000280020810D00081D0D0008250D0008A6
:100010002D0D0008350D00083D0D00080000000002
:10002000000000000000000000000000450D000876
:10003000510D0008000000005D0D0008690D00086A
:10004000C90D0008C90D0008C90D0008C90D000838
:10005000C90D0008C90D0008C90D0008C90D000828
:10006000C90D0008C90D0008C90D0008C90D000818
:10007000C90D0008C90D0008C90D0008C90D000808
:10008000C90D0008C90D0008C90D0008C90D0008F8
:10009000C90D0008C90D0008C90D0008C90D0008E8
:1000A000C90D0008C90D0008C90D0008C90D0008D8
:1000B000C90D0008C90D000800000000C90D0008A6
:1000C000C90D00080000000000000000C90D000874
:1000D00000000000C90D0008C90D00080000000064
:1000E000C90D0008C90D0008C90D00080000000076
:1000F0000000000000000000000000000000000000
:0C01000000000000000000005FF808F1A3
:10010C0010B5054C237833B9044B13B10448AFF345
:10011C0000800123237010BD14000020000000009B
:10012C00DC1B000808B5034B1BB103490348AFF3B4
:10013C00008008BD0000000018000020DC1B000837
:10014C0080B582B000AF7860C7F800C07B68002B28
:10015C00C0F29C817B68092B00F398817B68092B8A
:10016C0000F2968101A252F823F000BFA101000811
:10017C00ED0100083902000885020008D1020008D0
:10018C001D03000869030008B503000801040008FA
:10019C004D04000800220121BF4801F0F7F80022AD
:1001AC000221BD4801F0F2F800220421BA4801F006
:1001BC00EDF800220821B84801F0E8F800221021DF
:1001CC00B54801F0E3F800224FF48071B24801F019
:1001DC00DDF801224FF40071AF4801F0D7F858E177
:1001EC0001220121AC4801F0D1F800220221AA48D9
:1001FC0001F0CCF800220421A74801F0C7F8012235
:10020C000821A54801F0C2F801221021A24801F0F2
:10021C00BDF801224FF480719F4801F0B7F801221C
:10022C004FF400719C4801F0B1F832E10022012139
:10023C00994801F0ABF800220221974801F0A6F88A
:10024C0001220421944801F0A1F8002208219248CF
:10025C0001F09CF8002210218F4801F097F8012240
:10026C004FF480718C4801F091F800224FF400712A
:10027C00894801F08BF80CE100220121864801F03D
:10028C0085F800220221844801F080F80022042124
:10029C00814801F07BF8002208217F4801F076F8B4
:1002AC00012210217C4801F071F801224FF4807179
:1002BC00794801F06BF800224FF40071764801F098
:1002CC0065F8E6E001220121734801F05FF8002295
:1002DC000221714801F05AF8002204216E4801F005
:1002EC0055F8012208216C4801F050F80122102128
:1002FC00694801F04BF800224FF48071664801F018
:10030C0045F800224FF40071634801F03FF8C0E05B
:10031C0000220121604801F039F8012202215E48D7
:10032C0001F034F8002204215B4801F02FF8002280
:10033C000821594801F02AF801221021564801F0F1
:10034C0025F800224FF48071534801F01FF8002269
:10035C004FF40071504801F019F89AE00022012185
:10036C004D4801F013F8012202214B4801F00EF820
:10037C0000220421484801F009F8002208214648CF
:10038C0001F004F800221021434800F0FFFF002286
:10039C004FF48071404800F0F9FF00224FF40071D7
:1003AC003D4800F0F3FF74E0002201213A4800F0D0
:1003BC00EDFF00220221384800F0E8FF0022042162
:1003CC00354800F0E3FF01220821334800F0DEFF3E
:1003DC0001221021304800F0D9FF01224FF4807126
:1003EC002D4800F0D3FF01224FF400712A4800F091
:1003FC00CDFF4EE000220121274800F0C7FF00226C
:10040C000221254800F0C2FF00220421224800F0FE
:10041C00BDFF00220821204800F0B8FF0022102167
:10042C001D4800F0B3FF00224FF480711A4800F011
:10043C00ADFF00224FF40071174800F0A7FF28E031
:10044C0000220121144800F0A1FF002202211248D1
:10045C0000F09CFF002204210F4800F097FF0022BF
:10046C0008210D4800F092FF012210210A4800F0EB
:10047C008DFF00224FF48071074800F087FF0022A7
:10048C004FF40071044800F081FF02E000BF00E06F
:10049C0000BF0837BD4680BD0008014080B584B060
:1004AC0000AF07F118033B6000F08AFC00F05AFB28
:1004BC0000F094FB0023FB730523BB730123BB608B
:1004CC0001237B60FB7B022B48D0022B6CDC002BC6
:1004DC0002D0012B21D067E03B469C460221002034
:1004EC0000F0A6FA6F4B1B68002B02DC6D4B03224D
:1004FC001A606C4B1B683A4694461846FFF720FE70
:10050C00684B1B68013B674A1360BB68032B46D1E1
:10051C000123FB730023BB6041E03B469C46012159
:10052C00002000F085FA5F4B1B68002B02DC5D4B52
:10053C0002221A605B4B1B683A4694461846FFF73A
:10054C00FFFD584B1B68013B564A1360BB68022BDE
:10055C0027D10223FB730023BB6022E03B469C4661
:10056C000021002000F064FA4E4B1B68002B02DCCB
:10057C004C4B05221A604B4B1B683A469446184666
:10058C00FFF7DEFD474B1B68013B464A1360BB6817
:10059C00052B08D10023FB730023BB6003E000BFD5
:1005AC0002E000BF00E000BFBB7B052B06D0052B93
:1005BC006CDC032B23D0042B42D067E03B469C46DB
:1005CC000021012000F034FA374B1B68002B02DCB1
:1005DC00354B05221A60344B1B683A469446184634
:1005EC0000F064F8304B1B68013B2F4A13607B68AA
:1005FC00052B46D10323BB7300237B6041E03B46B4
:10060C009C460221012000F013FA274B1B68002B9B
:10061C0002DC254B03221A60234B1B683A46944696
:10062C00184600F043F8204B1B68013B1E4A136030
:10063C007B68032B27D10423BB7300237B6022E050
:10064C003B469C460121012000F0F2F9164B1B6839
:10065C00002B02DC144B02221A60134B1B683A4627
:10066C009446184600F022F80F4B1B68013B0E4ACB
:10067C0013607B68022B08D10523BB7300237B60BE
:10068C0003E000BF02E000BF00E000BFBB68013325
:10069C00BB607B6801337B604FF47A7000F0F2FB37
:1006AC0010E700BF000000200400002080B582B0DD
:1006BC0000AF7860C7F800C07B68002BC0F2B08137
:1006CC007B68092B00F3AC817B68092B00F2AA81B3
:1006DC0001A252F823F000BF0D0700085D070008C7
:1006EC00AD070008FD0700084D0800089D0800082C
:1006FC00ED0800083D0900088D090008DD09000817
:10070C0000222021C94800F041FE00224021C748A8
:10071C0000F03CFE00228021C44800F037FE00228D
:10072C004FF48071C14800F031FE00224FF400718B
:10073C00BE4800F02BFE00224FF40051BB4800F0E5
:10074C0025FE01224FF48041B84800F01FFE6AE1FB
:10075C0001222021B54800F019FE00224021B348A7
:10076C0000F014FE00228021B04800F00FFE0122A0
:10077C004FF48071AD4800F009FE01224FF4007176
:10078C00AA4800F003FE01224FF40051A74800F0E4
:10079C00FDFD01224FF48041A44800F0F7FD42E139
:1007AC0000222021A14800F0F1FD002240219F48A9
:1007BC0000F0ECFD012280219C4800F0E7FD0022B6
:1007CC004FF48071994800F0E1FD00224FF4007164
:1007DC00964800F0DBFD01224FF40051934800F0E5
:1007EC00D5FD00224FF48041904800F0CFFD1AE176
:1007FC00002220218D4800F0C9FD002240218B48A9
:10080C0000F0C4FD00228021884800F0BFFD0022CA
:10081C004FF48071854800F0B9FD01224FF400714E
:10082C00824800F0B3FD01224FF400517F4800F0E4
:10083C00ADFD00224FF480417C4800F0A7FDF2E0B2
:10084C0001222021794800F0A1FD002240217748A7
:10085C0000F09CFD00228021744800F097FD0122DD
:10086C004FF48071714800F091FD01224FF400713A
:10087C006E4800F08BFD00224FF400516B4800F0E5
:10088C0085FD00224FF48041684800F07FFDCAE0EE
:10089C0000222021654800F079FD012240216348A7
:1008AC0000F074FD00228021604800F06FFD0022F2
:1008BC004FF480715D4800F069FD01224FF4007126
:1008CC005A4800F063FD00224FF40051574800F0E5
:1008DC005DFD00224FF48041544800F057FDA2E02A
:1008EC0000222021514800F051FD012240214F48A7
:1008FC0000F04CFD002280214C4800F047FD002206
:10090C004FF48071494800F041FD00224FF4007112
:10091C00464800F03BFD00224FF40051434800F0E4
:10092C0035FD00224FF48041404800F02FFD7AE065
:10093C00002220213D4800F029FD002240213B48A7
:10094C0000F024FD00228021384800F01FFD012218
:10095C004FF48071354800F019FD01224FF40071FD
:10096C00324800F013FD01224FF400512F4800F0E3
:10097C000DFD01224FF480412C4800F007FD52E0A0
:10098C0000222021294800F001FD002240212748A7
:10099C0000F0FCFC00228021244800F0F7FC00222F
:1009AC004FF48071214800F0F1FC00224FF40071EB
:1009BC001E4800F0EBFC00224FF400511B4800F0E5
:1009CC00E5FC00224FF48041184800F0DFFC2AE0DF
:1009DC0000222021154800F0D9FC002240211348A8
:1009EC0000F0D4FC00228021104800F0CFFC002243
:1009FC004FF480710D4800F0C9FC01224FF40071D6
:100A0C000A4800F0C3FC00224FF40051074800F0E4
:100A1C00BDFC00224FF48041044800F0B7FC02E01A
:100A2C0000BF00E000BF0837BD4680BD000C014090
:100A3C0080B584B000AFF860B960C7F804C0FB683B
:100A4C00002B03D0FB68012B44D084E0BB68022B45
:100A5C002DD0BB68022B7BDCBB68002B03D0BB68A2
:100A6C00012B12D074E0012201213D4800F08EFCD4
:100A7C0000224FF480513A4800F088FC00224FF4D9
:100A8C000061374800F082FC23E000220121344849
:100A9C0000F07CFC01224FF48051314800F076FCD0
:100AAC0000224FF400612E4800F070FC11E000228F
:100ABC0001212B4800F06AFC00224FF48051284899
:100ACC0000F064FC01224FF40061254800F05EFC4C
:100ADC0000BF3DE0BB68022B29D0BB68022B39DC80
:100AEC00BB68002B03D0BB68012B10D032E0012275
:100AFC0010211B4800F04AFC00220821184800F085
:100B0C0045FC00220221164800F040FC1FE00022A8
:100B1C001021134800F03AFC01220821104800F083
:100B2C0035FC002202210E4800F030FC0FE00022C0
:100B3C0010210B4800F02AFC00220821084800F084
:100B4C0025FC01220221064800F020FC00BF01E038
:100B5C0000BF00E000BF00BF1037BD4680BD00BF26
:100B6C00000C014080B590B000AF07F118032822AB
:100B7C000021184601F000F83B1D00221A605A6053
:100B8C009A60DA601A610223BB610123BB621023F5
:100B9C00FB6200237B6307F11803184600F00EFC80
:100BAC000346002B01D000F07BF80F237B60002361
:100BBC00BB600023FB6000233B6100237B613B1D7A
:100BCC000021184600F07CFE0346002B01D000F0FB
:100BDC0067F800BF4037BD4680BD000080B588B0C7
:100BEC0000AF07F1100300221A605A609A60DA60B5
:100BFC00284B9B69274A43F020039361254B9B6943
:100C0C0003F02003FB60FB68224B9B69214A43F0F5
:100C1C00040393611F4B9B6903F00403BB60BB6827
:100C2C001C4B9B691B4A43F008039361194B9B694E
:100C3C0003F008037B607B68002240F2FF3116480A
:100C4C0000F0A4FB002247F6FB71144800F09EFB59
:100C5C0040F2FF333B6101237B610023BB61022324
:100C6C00FB6107F1100319460B4800F013FA47F625
:100C7C00FB733B6101237B610023BB610223FB619E
:100C8C0007F110031946054800F004FA00BF20379D
:100C9C00BD4680BD0010024000080140000C014020
:100CAC0080B400AF72B600BF00BFFDE780B485B062
:100CBC0000AF154B9B69144A43F001039361124B2F
:100CCC009B6903F00103BB60BB680F4BDB690E4AE9
:100CDC0043F08053D3610C4BDB6903F080537B6092
:100CEC007B680A4B5B68FB60FB6823F0E063FB608E
:100CFC00FB6843F00073FB60044AFB68536000BF61
:100D0C001437BD4680BC7047001002400000014003
:100D1C0080B400AF00BFFDE780B400AF00BFFDE7BB
:100D2C0080B400AF00BFFDE780B400AF00BFFDE7AB
:100D3C0080B400AF00BFFDE780B400AF00BFBD467C
:100D4C0080BC704780B400AF00BFBD4680BC70470C
:100D5C0080B400AF00BFBD4680BC704780B500AF0B
:100D6C0000F074F800BF80BD80B400AF00BFBD467A
:100D7C0080BC7047FFF7F8FF0B480C490C4A002366
:100D8C0002E0D458C4500433C4188C42F9D3094A35
:100D9C00094C002301E013600432A242FBD300F0A3
:100DAC00F3FEFFF77BFB70470000002014000020CF
:100DBC00201C00081400002034000020FEE7000076
:100DCC0080B500AF084B1B68074A43F01003136053
:100DDC00032000F02BF90F2000F008F8FFF766FF56
:100DEC000023184680BD00BF0020024080B582B0B1
:100DFC0000AF7860124B1A68124B1B7819464FF4EF
:100E0C007A73B3FBF1F3B2FBF3F3184600F035F948
:100E1C000346002B01D001230EE07B680F2B0AD870
:100E2C00002279684FF0FF3000F00BF9064A7B681E
:100E3C001360002300E0012318460837BD4680BD2F
:100E4C0008000020100000200C00002080B400AF2F
:100E5C00054B1B781A46054B1B681344034A136059
:100E6C0000BFBD4680BC7047100000203000002041
:100E7C0080B400AF024B1B681846BD4680BC70475F
:100E8C003000002080B584B000AF7860FFF7F0FF31
:100E9C00B8607B68FB60FB68B3F1FF3F05D00A4B81
:100EAC001B781A46FB681344FB6000BFFFF7E0FF9A
:100EBC000246BB68D31AFA689A42F7D800BF00BF43
:100ECC001037BD4680BD00BF1000002080B485B037
:100EDC0000AF78607B6803F00703FB600C4BDB68AA
:100EEC00BB60BA684FF6FF031340BB60FB681A0285
:100EFC00BB68134343F0BF6343F40033BB60044A45
:100F0C00BB68D36000BF1437BD4680BC704700BFC0
:100F1C0000ED00E080B400AF044BDB681B0A03F06B
:100F2C0007031846BD4680BC704700BF00ED00E0CB
:100F3C0080B483B000AF03463960FB7197F907307A
:100F4C00002B0ADB3B68DAB20C4997F90730120127
:100F5C00D2B20B4483F800230AE03B68DAB20849AA
:100F6C00FB7903F00F03043B1201D2B20B441A7647
:100F7C0000BF0C37BD4680BC704700BF00E100E0ED
:100F8C0000ED00E080B489B000AFF860B9607A6021
:100F9C00FB6803F00703FB61FB69C3F10703042B38
:100FAC0028BF0423BB61FB690433062B02D9FB6900
:100FBC00033B00E000237B614FF0FF32BB6902FA78
:100FCC0003F3DA43BB681A407B699A404FF0FF3158
:100FDC007B6901FA03F3D9437B680B401343184632
:100FEC002437BD4680BC704780B582B000AF7860B6
:100FFC007B68013BB3F1807F01D301230FE00A4AE8
:10100C007B68013B53600F214FF0FF30FFF790FFDF
:10101C00054B00229A60044B07221A6000231846E5
:10102C000837BD4680BD00BF10E000E080B582B03F
:10103C0000AF78607868FFF749FF00BF0837BD46FE
:10104C0080BD80B586B000AF0346B9607A60FB7393
:10105C0000237B61FFF75EFF78617A68B968786975
:10106C00FFF790FF024697F90F3011461846FFF72D
:10107C005FFF00BF1837BD4680BD80B582B000AFA2
:10108C0078607868FFF7B0FF034618460837BD460E
:10109C0080BD000080B48BB000AF78603960002355
:1010AC007B6200233B6261E101227B6A02FA03F35B
:1010BC00FB613B681B68FA691340BB61BA69FB6949
:1010CC009A4240F050813B685B68974A93425ED0ED
:1010DC00954A934275D8954A934258D0934A934275
:1010EC006FD8934A934252D0914A934269D8914A0D
:1010FC0093424CD08F4A934263D88F4A934246D046
:10110C008D4A93425DD8122B2AD8122B59D801A2A2
:10111C0052F823F09B110008751100088711000884
:10112C00C9110008CF110008CF110008CF11000819
:10113C00CF110008CF110008CF110008CF11000803
:10114C00CF110008CF110008CF110008CF110008F3
:10115C00CF110008CF1100087D1100089111000873
:10116C00764A934213D02CE03B68DB683B6229E063
:10117C003B68DB6804333B6224E03B68DB68083384
:10118C003B621FE03B68DB680C333B621AE03B6858
:10119C009B68002B02D104233B6213E03B689B68E5
:1011AC00012B05D108233B627B68FA691A6109E0BF
:1011BC0008233B627B68FA695A6103E000233B62B7
:1011CC0000E000BFBB69FF2B01D87B6801E07B68A6
:1011DC0004337B61BB69FF2B02D87B6A9B0002E066
:1011EC007B6A083B9B003B617B691A680F213B695A
:1011FC0001FA03F3DB431A40396A3B6901FA03F342
:10120C001A437B691A603B685B6803F08053002BC0
:10121C0000F0A9804A4B9B69494A43F00103936152
:10122C00474B9B6903F00103BB60BB68454A7B6A73
:10123C009B08023352F82330FB607B6A03F00303F4
:10124C009B000F2202FA03F3DB43FA681340FB60A6
:10125C007B683D4A93420DD07B683C4A934207D051
:10126C007B683B4A934201D1022304E0032302E052
:10127C00012300E000237A6A02F0030292009340FB
:10128C00FA681343FB602F497B6A9B080233FA68A8
:10129C0041F823203B685B6803F48013002B06D0D5
:1012AC002C4B9A682B49BB6913438B6006E0294B86
:1012BC009A68BB69DB43274913408B603B685B68CA
:1012CC0003F40013002B06D0224BDA682149BB69CA
:1012DC001343CB6006E01F4BDA68BB69DB431D4947
:1012EC001340CB603B685B6803F40033002B06D0E3
:1012FC00184B5A681749BB6913434B6006E0154BF2
:10130C005A68BB69DB43134913404B603B685B680D
:10131C0003F48033002B1FD00E4B1A680D49BB69A8
:10132C0013430B601FE000BF0000321000003110AF
:10133C0000002210000021100000121000001110FB
:10134C00001002400000014000080140000C014068
:10135C0000100140000401400B4B1A68BB69DB43D1
:10136C00094913400B607B6A01337B623B681A6846
:10137C007B6A22FA03F3002B7FF496AE00BF00BF0A
:10138C002C37BD4680BC70470004014080B483B04C
:10139C0000AF78600B467B8013467B707B78002B0C
:1013AC0003D07A887B681A6103E07B881A047B6817
:1013BC001A6100BF0C37BD4680BC704780B586B043
:1013CC0000AF78607B68002B01D1012372E27B684F
:1013DC001B6803F00103002B00F08780924B5B68C5
:1013EC0003F00C03042B0CD08F4B5B6803F00C0345
:1013FC00082B12D18C4B5B6803F48033B3F5803F20
:10140C000BD1894B1B6803F40033002B6CD07B6829
:10141C005B68002B68D101234CE27B685B68B3F5F9
:10142C00803F06D1804B1B687F4A43F480331360A6
:10143C002EE07B685B68002B0CD17B4B1B687A4AD7
:10144C0023F480331360784B1B68774A23F4802392
:10145C0013601DE07B685B68B3F5A02F0CD1724B59
:10146C001B68714A43F4802313606F4B1B686E4AF0
:10147C0043F4803313600BE06B4B1B686A4A23F414
:10148C0080331360684B1B68674A23F48023136016
:10149C007B685B68002B13D0FFF7EAFC386108E02F
:1014AC00FFF7E6FC02463B69D31A642B01D90323F0
:1014BC0000E25D4B1B6803F40033002BF0D014E00A
:1014CC00FFF7D6FC386108E0FFF7D2FC02463B6917
:1014DC00D31A642B01D90323ECE1534B1B6803F49F
:1014EC000033002BF0D100E000BF7B681B6803F0D9
:1014FC000203002B63D04C4B5B6803F00C03002BF6
:10150C000BD0494B5B6803F00C03082B1CD1464BEA
:10151C005B6803F48033002B16D1434B1B6803F03C
:10152C000203002B05D07B681B69012B01D0012322
:10153C00C0E13D4B1B6823F0F8027B685B69DB0064
:10154C00394913430B603AE07B681B69002B20D0B0
:10155C00364B01221A60FFF78BFC386108E0FFF76D
:10156C0087FC02463B69D31A022B01D90323A1E164
:10157C002D4B1B6803F00203002BF0D02A4B1B6889
:10158C0023F0F8027B685B69DB00274913430B608F
:10159C0015E0264B00221A60FFF76AFC386108E060
:1015AC00FFF766FC02463B69D31A022B01D90323D1
:1015BC0080E11D4B1B6803F00203002BF0D17B680C
:1015CC001B6803F00803002B3AD07B689B69002B47
:1015DC0019D0174B01221A60FFF74AFC386108E05A
:1015EC00FFF746FC02463B69D31A022B01D90323B1
:1015FC0060E10D4B5B6A03F00203002BF0D001207D
:10160C0000F09CFA1CE00A4B00221A60FFF730FC39
:10161C0038610FE0FFF72CFC02463B69D31A022B12
:10162C0008D9032346E100BF0010024000004242EB
:10163C0080044242924B5B6A03F00203002BE9D117
:10164C007B681B6803F00403002B00F0A6800023CA
:10165C00FB758B4BDB6903F08053002B0DD1884B52
:10166C00DB69874A43F08053D361854BDB6903F018
:10167C008053BB60BB680123FB75824B1B6803F472
:10168C008073002B18D17F4B1B687E4A43F4807308
:10169C001360FFF7EDFB386108E0FFF7E9FB02464A
:1016AC003B69D31A642B01D9032303E1754B1B68E7
:1016BC0003F48073002BF0D07B68DB68012B06D120
:1016CC006F4B1B6A6E4A43F0010313622DE07B687B
:1016DC00DB68002B0CD16A4B1B6A694A23F00103AF
:1016EC001362674B1B6A664A23F0040313621CE007
:1016FC007B68DB68052B0CD1614B1B6A604A43F09D
:10170C00040313625E4B1B6A5D4A43F001031362D0
:10171C000BE05B4B1B6A5A4A23F001031362584BD4
:10172C001B6A574A23F0040313627B68DB68002BA7
:10173C0015D0FFF79DFB38610AE0FFF799FB0246D5
:10174C003B69D31A41F28832934201D90323B1E0A9
:10175C004B4B1B6A03F00203002BEED014E0FFF797
:10176C0087FB38610AE0FFF783FB02463B69D31A1B
:10177C0041F28832934201D903239BE0404B1B6A10
:10178C0003F00203002BEED1FB7D012B05D13C4B6A
:10179C00DB693B4A23F08053D3617B68DB69002B08
:1017AC0000F08780364B5B6803F00C03082B61D08C
:1017BC007B68DB69022B46D1334B00221A60FFF7A2
:1017CC0057FB386108E0FFF753FB02463B69D31A1D
:1017DC00022B01D903236DE0294B1B6803F0007326
:1017EC00002BF0D17B681B6AB3F5803F08D1244BEA
:1017FC005B6823F400327B689B68214913434B6080
:10180C001F4B5B6823F474127B68196A7B685B6AF4
:10181C000B431B4913434B601B4B01221A60FFF710
:10182C0027FB386108E0FFF723FB02463B69D31A1C
:10183C00022B01D903233DE0114B1B6803F000730D
:10184C00002BF0D035E0104B00221A60FFF710FB94
:10185C00386108E0FFF70CFB02463B69D31A022BF8
:10186C0001D9032326E0064B1B6803F00073002B01
:10187C00F0D11EE07B68DB69012B07D1012319E055
:10188C000010024000700040600042420B4B5B684D
:10189C00FB60FB6803F480327B681B6A9A4206D1BA
:1018AC00FB6803F470127B685B6A9A4201D00123D7
:1018BC0000E0002318461837BD4680BD00100240DA
:1018CC0080B584B000AF786039607B68002B01D1A3
:1018DC000123D0E06A4B1B6803F007033A689A4275
:1018EC0010D9674B1B6823F0070265493B6813430B
:1018FC000B60634B1B6803F007033A689A4201D0F4
:10190C000123B8E07B681B6803F00203002B20D096
:10191C007B681B6803F00403002B05D0594B5B68F4
:10192C00584A43F4E06353607B681B6803F0080378
:10193C00002B05D0534B5B68524A43F46053536001
:10194C00504B5B6823F0F0027B689B684D49134356
:10195C004B607B681B6803F00103002B40D07B6855
:10196C005B68012B07D1474B1B6803F40033002B3A
:10197C0015D101237FE07B685B68022B07D1414BBB
:10198C001B6803F00073002B09D1012373E03D4B5E
:10199C001B6803F00203002B01D101236BE0394BD0
:1019AC005B6823F003027B685B68364913434B602A
:1019BC00FFF75EFAF8600AE0FFF75AFA0246FB6896
:1019CC00D31A41F28832934201D9032353E02D4BB1
:1019DC005B6803F00C027B685B689B009A42EBD15E
:1019EC00274B1B6803F007033A689A4210D2244B2A
:1019FC001B6823F0070222493B6813430B60204B02
:101A0C001B6803F007033A689A4201D0012332E0C5
:101A1C007B681B6803F00403002B08D0194B5B6830
:101A2C0023F4E0627B68DB68164913434B607B68E8
:101A3C001B6803F00803002B09D0124B5B6823F4DE
:101A4C0060527B681B69DB000E4913434B6000F04E
:101A5C0021F802460B4B5B681B0903F00F030A4984
:101A6C00CB5C22FA03F3094A1360094B1B68184636
:101A7C00FFF7BCF9002318461037BD4680BD00BFE8
:101A8C000020024000100240F41B00080800002057
:101A9C000C00002080B487B000AF0023FB60002353
:101AAC00BB6000237B6100237B6000233B611E4BEA
:101ABC005B68FB60FB6803F00C03042B02D0082B63
:101ACC0003D027E0194B3B6127E0FB689B0C03F02C
:101ADC000F03174AD35C7B60FB6803F48033002B45
:101AEC0010D0114B5B685B0C03F00103114AD35C03
:101AFC00BB607B680D4A03FB02F2BB68B2FBF3F3DD
:101B0C007B6104E07B680C4A02FB03F37B617B691D
:101B1C003B6102E0054B3B6100BF3B6918461C373B
:101B2C00BD4680BC704700BF0010024000127A0016
:101B3C00041C0008141C000800093D0080B485B08A
:101B4C0000AF78600A4B1B680A4AA2FB03235B0AAE
:101B5C007A6802FB03F3FB6000BFFB685A1EFA6055
:101B6C00002BF9D100BF00BF1437BD4680BC7047B5
:101B7C0008000020D34D621003460244934200D16A
:101B8C00704703F8011BF9E770B500260C4D0D4C9E
:101B9C00641BA410A64209D100F01AF800260A4DC5
:101BAC000A4C641BA410A64205D170BD55F8043B29
:101BBC0098470136EEE755F8043B98470136F2E7B3
:101BCC00181C0008181C0008181C00081C1C000815
:101BDC00F8B500BFF8BC08BC9E467047F8B500BF0E
:081BEC00F8BC08BC9E467047DE
:101BF40000000000000000000102030406070809B9
:101C040002030405060708090A0B0C0D0E0F101039
:041C140001020000C9
:041C1800310100088E
:041C1C000D010008AE
:101C2000030000000500000000127A001000000010
:041C300001000000AF
:0400000508000D8161
:00000001FF
